:100000000C9446000C9465000C9465000C946500FB
:100010000C9465000C9465000C9465000C946500CC
:100020000C9465000C9465000C94D8000C94650049
:100030000C9465000C9465000C9465000C946500AC
:100040000C94C4000C9465000C9465000C9465003D
:100050000C9465000C94E7000C9465000C9465000A
:100060000C9465000C9465000C9465000C9465007C
:100070000C9465000C9465000C9465000C9465006C
:100080000C9465000C9465000C94650011241FBE4F
:10009000CFEFD0E1DEBFCDBF11E0A0E0B1E0E2EEF6
:1000A000F5E000E00BBF02C007900D92A830B10749
:1000B000D9F721E0A8E0B1E001C01D92A531B20757
:1000C000E1F70E94F1010C94EF020C94000040B3A0
:1000D0002091130130911401220F331F306E50E034
:1000E00002C0559547958A95E2F74170552781E002
:1000F0004827242B352B309314012093130181E0E2
:100100002115304F09F080E0089585B5886485BDDC
:1001100085B5806285BD85B5856085BD8FEF83BD62
:1001200087B7816087BF089583B7886483BF83B72B
:10013000806283BF83B7856083BF8FEF81BF87B73E
:10014000806487BF089587B3876087BB8DB1806562
:100150008DB9709A089587B3806687BBB99AB89AAB
:1001600011BA8FEF82BB129813981498159814BA8D
:10017000BA9A08953E9A3D9A379A359A339A86B13B
:10018000876086B9369A08951F920F920FB60F9224
:1001900011248F9380911101853C18F084EC809399
:1001A000110181BF8F910F900FBE0F901F90189576
:1001B0001F920F920FB60F9211248F93809112010C
:1001C00083BD8F910F900FBE0F901F9018951F92B7
:1001D0000F920FB60F9211240F900FBE0F901F9029
:1001E00018950A9B02C00B9B2AC00B9B02C00A9B5E
:1001F00014C00B9B11C00A9B0FC08091020190910B
:100200000501891709F44DC090910301891759F12F
:1002100080910001809302010895809102019091E4
:1002200006018917C9F190910001891709F454C09A
:10023000209103018213DDCF90930201DACF8091E8
:10024000020190910001891711F120910501821797
:1002500009F43FC0909104018913C7CF8091030135
:1002600080930201C2CF8091080190910901A09171
:100270000A01B0910B010197A109B109809308010E
:1002800090930901A0930A01B0930B01C1CF809113
:10029000060180930201A9CF80910501809302019C
:1002A000A8CF8091080190910901A0910A01B09115
:1002B0000B010196A11DB11D8093080190930901C6
:1002C000A0930A01B0930B01809100018093020179
:1002D000A3CF9093020189CF809104018093020102
:1002E00088CF0C9B02C00D9B2AC00D9B02C00C9BAB
:1002F00014C00D9B11C00C9B0FC080910101909107
:100300000501891709F44DC090910301891759F12E
:1003100080910001809301010895809101019091E5
:1003200006018917C9F190910001891709F454C099
:10033000209103018213DDCF90930101DACF8091E8
:10034000010190910001891711F120910501821797
:1003500009F43FC0909104018913C7CF8091030134
:1003600080930101C2CF80910C0190910D01A09169
:100370000E01B0910F010197A109B10980930C0101
:1003800090930D01A0930E01B0930F01C1CF809106
:10039000060180930101A9CF80910501809301019D
:1003A000A8CF80910C0190910D01A0910E01B09108
:1003B0000F010196A11DB11D80930C0190930D01B9
:1003C000A0930E01B0930F01809100018093010171
:1003D000A3CF9093010189CF809104018093010103
:1003E00088CF0E9485000E9494000E94AB00789400
:1003F00099249394EEEF6E2EF0E47F2EA0E68A2EE1
:100400000E94F1000E94710120B38091130190912C
:100410001401880F991F906E21702925822B9093CB
:10042000140180931301811520EF920709F4CAC0CB
:1004300020B326952170C22F20E0D22F21E0C227C1
:10044000D06E880F991FC82BD92BD0931401C0935D
:100450001301C11580EFD80709F4A9C0CE0120B35C
:1004600022FB002700F910E021E00227106E880F20
:10047000991F082B192B10931401009313010115D8
:1004800080EF180709F488C0C80120B323FBEE24CD
:10049000E0F8F12C21E0E22620EEF22A880F991FE5
:1004A000E82AF92AF0921401E0921301E11480EF96
:1004B000F80609F468C0C70120B324FBCC24C0F8B7
:1004C000D12C21E0C22620EED22A880F991FC82AFB
:1004D000D92AD0921401C0921301C11480EFD8061A
:1004E00009F448C0C60120B325FBAA24A0F8B12C0A
:1004F00021E0A22620EEB22A880F991FA82AB92A45
:10050000B0921401A0921301A11480EFB80671F10A
:1005100080910C0190910D01A0910E01B0910F01FD
:100520008C302DE09207A105B105B1F08B302DE0A4
:100530009207A105B1052CF480921101BC9AC298D2
:100540005FCF8E309D40A105B1050CF446C080926E
:100550001101BC9AC29A54CFC19A80910C0190911A
:100560000D01A0910E01B0910F01E0CF1092110189
:10057000BC98CECF70921101BC9AC29880911301A1
:1005800090911401B0CF70921101BC9AC29A8091DF
:1005900013019091140190CFC098C598C6981092FD
:1005A0001201BF9880911301909114016ECFC09AEF
:1005B000C598C69A60921201BF9A809113019091DA
:1005C00014014DCFC09AC59AC69860921201BF9A85
:1005D00080911301909114012BCFBC9811CFF89406
:0205E000FFCF4B
:0805E200010101050403020000
:00000001FF
