S010000041505F526F626F742E737265631E
S11300000C9446000C9465000C9465000C946500F7
S11300100C9465000C9465000C9465000C946500C8
S11300200C9465000C9465000C94D5000C94650048
S11300300C9465000C9465000C9465000C946500A8
S11300400C94C1000C9465000C9465000C9465003C
S11300500C9465000C94E4000C9465000C94650009
S11300600C9465000C9465000C9465000C94650078
S11300700C9465000C9465000C9465000C94650068
S11300800C9465000C9465000C94650011241FBE4B
S1130090CFEFD0E1DEBFCDBF11E0A0E0B1E0E6E8F4
S11300A0F4E000E00BBF02C007900D92A630B10748
S11300B0D9F721E0A6E0B1E001C01D92AF30B2074C
S11300C0E1F70E946E010C9441020C94000040B3CD
S11300D020910D0130910E01220F331F306E50E03C
S11300E002C0559547958A95E2F74170552781E0FE
S11300F04827242B352B30930E0120930D0181E0EA
S11301002115304F09F080E0089585B5886485BDD8
S113011085B5806285BD85B5856085BD8FEF83BD5E
S113012087B7816087BF089583B7886483BF83B727
S1130130806283BF83B7856083BF8FEF81BF87B73A
S1130140806487BF089587B3876087BB8DB180655E
S11301508DB9709A089587B3806687BBB99AB89AA7
S113016011BA8FEF82BB1298139814BA08953E9A6D
S11301703D9A379A359A339A86B1876086B9369A0A
S113018008951F920F920FB60F9211248F938091AE
S11301900B01853C18F084EC80930B0181BF8F9197
S11301A00F900FBE0F901F9018951F920F920FB6CD
S11301B00F9211248F9380910C0183BD8F910F9026
S11301C00FBE0F901F9018951F920F920FB60F92AB
S11301D011240F900FBE0F901F9018950A9B02C018
S11301E00B9B2AC00B9B02C00A9B14C00B9B11C023
S11301F00A9B0FC08091010190910401891709F4B1
S11302004DC090910201891759F1809100018093AA
S11302100101089580910101909105018917C9F1A7
S113022090910001891709F454C0209102018213AE
S1130230DDCF90930101DACF80910101909100010B
S1130240891711F120910401821709F43FC090919C
S113025003018913C7CF8091020180930101C2CFAA
S11302608091060190910701A0910801B0910901C4
S11302700197A109B1098093060190930701A09306
S11302800801B0930901C1CF809105018093010158
S1130290A9CF8091040180930101A8CF8091060128
S11302A090910701A0910801B09109010196A11D47
S11302B0B11D8093060190930701A0930801B093A8
S11302C009018091000180930101A3CF9093010162
S11302D089CF809103018093010188CF0E9485001A
S11302E00E94AB00789480900D0190900E017724C9
S11302F07394EEEF5E2EF0EA6F2E73C020B3269552
S11303002170C22F20E0D22F21E0C227D06E880FA7
S1130310991FC82BD92BD0930E01C0930D01C11581
S113032080EFD80709F4A2C0CE0120B322FB002736
S113033000F910E021E00227106E880F991F082BA6
S1130340192B10930E0100930D01011580EF18076E
S113035009F481C0C80120B323FBEE24E0F8F12C9A
S113036021E0E22620EEF22A880F991FE82AF92AD2
S1130370F0920E01E0920D01E11480EFF80609F409
S113038062C0C70120B324FBCC24C0F8D12C21E0E7
S1130390C22620EED22A880F991FC82AD92AD092C1
S11303A00E01C0920D01C11480EFD80609F443C0B8
S11303B0C60120B325FBAA24A0F8B12C21E0A22673
S11303C020EEB22A880F991FA82AB92AB0920E01EA
S11303D0A0920D01A11480EFB80609F14501989986
S11303E027C00E94EE0020B3C401880F991F906EAD
S11303F021702725822B90930E0180930D01811586
S113040020EF920709F07ACFC09AC59AC698509205
S11304100C01BF9A80910D0190910E016FCF109243
S11304200C01BC9880900D0190900E01989BD9CF3F
S113043010920C01D6CF60920C01BC9A80910D01F0
S113044090910E01B6CF60920B01BC9A80910D0180
S113045090910E0197CFC098C598C69810920C0140
S1130460BF9880910D0190910E0175CFC09AC598E7
S1130470C69A50920C01BF9A80910D0190910E0181
S109048054CFF894FFCFF5
S10904860101050403025C
S9030000FC
