:100000000C9446000C9458000C9458000C94580022
:100010000C9458000C9458000C9458000C94580000
:100020000C9458000C9458000C94C8000C94580080
:100030000C9458000C9458000C9458000C945800E0
:100040000C94AC000C9458000C9458000C9458007C
:100050000C9458000C94D7000C9458000C94580041
:100060000C9458000C9458000C9458000C945800B0
:100070000C9458000C9458000C9458000C945800A0
:100080000C9458000C9458000C94580011241FBE76
:10009000CFEFD0E1DEBFCDBF21E0A0E0B1E001C0F5
:1000A0001D92A430B207E1F70E94E1000C942D01EB
:1000B0000C94000040B32091020130910301220F03
:1000C000331F306E50E002C0559547958A95E2F790
:1000D0004170552781E04827242B352B30930301AD
:1000E0002093020181E02115304F09F080E008954E
:1000F00080B7886080BF87B7816087BF83B785601E
:1001000083BF089585B5886485BD85B5806285BD4A
:1001100085B5856085BD8FEF83BD87B7806487BF58
:10012000089587B3876087BB8DB180658DB9709A5C
:10013000089587B3806E87BBC79AB89A11BA8FEFBC
:1001400082BB08953E9A3D9A379A359A339A86B182
:10015000876086B9369A08951F920F920FB60F9254
:1001600011248F9380910101893049F08F5F809332
:1001700001018F910F900FBE0F901F90189581E095
:10018000809301018F910F900FBE0F901F901895D3
:100190001F920F920FB60F9211248F93809100013E
:1001A00083BD8F910F900FBE0F901F9018951F92D7
:1001B0000F920FB60F9211240F900FBE0F901F9049
:1001C00018950E94820087B3806E87BBC79AB89A41
:1001D00011BA8FEF82BB7894C59A31E060E250E4A7
:1001E0004FEF809102019091030116C020B3269534
:1001F0002170C22F20E0D22F21E0C227D06E880FBD
:10020000991FC82BD92BD0930301C0930201C115AC
:1002100080EFD807F1F0CE0120B3880F991F906EC0
:1002200021702327822B9093030180930201811573
:1002300020EF9207D9F6C09A88B3862788BB88B387
:10024000852788BB409300018091020190910301B2
:0E025000CDCFC09810920001C4CFF894FFCF1C
:00000001FF
