S010000041505F526F626F742E737265631E
S11300000C9446000C9458000C9458000C9458001E
S11300100C9458000C9458000C9458000C945800FC
S11300200C9458000C9458000C94C2000C94580082
S11300300C9458000C9458000C9458000C945800DC
S11300400C94A6000C9458000C9458000C9458007E
S11300500C9458000C94D1000C9458000C94580043
S11300600C9458000C9458000C9458000C945800AC
S11300700C9458000C9458000C9458000C9458009C
S11300800C9458000C9458000C94580011241FBE72
S1130090CFEFD0E1DEBFCDBF21E0A0E0B1E001C0F1
S11300A01D92A430B207E1F70E94DB000C94FB0020
S11300B00C94000049B32091020130910301220FF6
S11300C0331F306E50E002C0559547958A95E2F78C
S11300D041705527242B352B3093030120930201C3
S11300E081E02115304F09F080E0089580B78860E1
S11300F080BF87B7816087BF83B7856083BF08955A
S113010085B5886485BD85B5806285BD85B5866005
S113011085BD13BC87B7806487BF089587B38760A4
S113012087BB8DB180658DB9709A0895BF9ABC9ACA
S11301301ABA8FEF8BBB08953E9A3D9A379A359A37
S1130140339A86B1876086B9369A08951F920F92C2
S11301500FB60F9211248F9380910101893049F0D9
S11301608F5F809301018F910F900FBE0F901F90AE
S1130170189581E0809301018F910F900FBE0F902D
S11301801F9018951F920F920FB60F9211248F9300
S11301908091000183BD8F910F900FBE0F901F902F
S11301A018951F920F920FB60F9211240F900FBE45
S11301B00F901F9018950E948000BF9ABC9A1ABA9B
S11301C08FEF8BBB7894809102019091030129B346
S11301D0880F991F906E2170C22F20E0D22F8C2B94
S11301E09D2B9093030180930201811520EF9207C8
S10D01F071F7C49AE8CFF894FFCF2A
S9030000FC
