S00E0000526F623432312E737265635C
S113000045C0000060C000005EC000005CC000008D
S11300105AC000005DC1000032C1000007C10000E9
S1130020DCC0000050C00000C9C000004CC000008B
S11300304AC0000048C0000046C0000044C00000A0
S1130040A7C0000040C000003EC000003CC000004B
S11300503AC0000038C0000036C0000034C00000C0
S113006032C0000030C000002EC000002CC00000D0
S11300702AC0000028C0000026C0000024C00000E0
S113008022C0000020C000001EC0000011241FBEBA
S1130090CFEFD0E1DEBFCDBF11E0A0E0B1E0ECEEE8
S11300A0F3E000E00BBF02C007900D92A630B10749
S11300B0D9F721E0A6E0B1E001C01D92A231B20758
S11300C0E1F72FD191C19CCF40B32091060130912B
S11300D00701220F331F306E50E002C0559547953B
S11300E08A95E2F781E090E040FF02C080E090E072
S11300F0282B392B309307012093060181E0211529
S1130100304F09F080E0089583B7886483BF83B7D4
S1130110806283BF83B7856083BF8FEF81BF87B75A
S1130120816087BF089585B5886485BD85B5806283
S113013085BD85B5856085BD8FEF83BD87B7806438
S113014087BF089587B3876687BB81B381BB8FEF71
S113015082BB14BA089517981F9A80E48ABF89B79E
S1130160806889BF16981E9A80E18ABF89B7806427
S113017089BF15981D9A84E08ABF89B7806289BFB8
S113018014981C9A81E08ABF89B7806189BF089559
S11301901F920F920FB60F9211248F93809110012A
S11301A0853C18F084EC809310018091100181BF8C
S11301B08F910F900FBE0F901F9018951F920F9262
S11301C00FB60F9211248F938091110183BD8F91EB
S11301D00F900FBE0F901F9018951F920F920FB69D
S11301E00F9211248F939F93AF93BF9380910C012F
S11301F090910D01A0910E01B0910F010197A109F9
S1130200B10980930C0190930D01A0930E01B0935A
S11302100F018091030180930001BF91AF919F91E1
S11302208F910F900FBE0F901F9018951F920F92F1
S11302300FB60F9211248F939F93AF93BF93809126
S11302400C0190910D01A0910E01B0910F01019646
S1130250A11DB11D80930C0190930D01A0930E017B
S1130260B0930F018091050180930001BF91AF917C
S11302709F918F910F900FBE0F901F9018951F9212
S11302800F920FB60F9211248F939F93AF93BF9346
S11302908091080190910901A0910A01B0910B018C
S11302A00197A109B1098093080190930901A093D2
S11302B00A01B0930B018091020180930101BF9167
S11302C0AF919F918F910F900FBE0F901F90189533
S11302D01F920F920FB60F9211248F939F93AF9397
S11302E0BF938091080190910901A0910A01B091F6
S11302F00B010196A11DB11D809308019093090182
S1130300A0930A01B0930B01809104018093010131
S1130310BF91AF919F918F910F900FBE0F901F903F
S1130320189501DFF1DE0EDF16DFC59A7894DEEF53
S1130330C0E480E0C9DE882339F0C09AC59AC69823
S1130340D0931101BF9A15C081E0BEDE882339F035
S1130350C09AC598C69AD0931101BF9A0AC082E088
S1130360B3DE882331F0C098C598C6981092110165
S1130370BF9883E0A9DE882329F0C0931001BC9ABA
S1130380C29A10C084E0A0DE882329F0C093100133
S1130390BC9AC29807C085E097DE882319F01092B2
S11303A01001BC9880910C0190910D01A0910E0157
S11303B0B0910F01883E9340A105B1051CF0109245
S11303C01001BC988091080190910901A0910A0143
S11303D0B0910B0180319742A105B1050CF4A9CF6E
S10F03E010921101BF98A5CFF894FFCF34
S10903EC010105040302F7
S9030000FC
