:1000000045C00000BCC0000051C000004FC000004F
:100010004DC000004BC0000049C0000047C00000B8
:1000200045C0000043C0000091C000003FC0000078
:100030003DC000003BC0000039C0000037C00000D8
:100040006EC0000033C0000031C000002FC00000AF
:100050002DC000008AC0000029C0000027C0000099
:1000600025C0000023C0000021C000001FC0000008
:100070001DC000001BC0000019C0000017C0000018
:1000800015C0000013C0000011C0000011241FBEE5
:10009000CFEFD0E1DEBFCDBF21E0A0E0B1E001C0F5
:1000A0001D92A630B207E1F78CD0B6C0A9CF40B3FD
:1000B0002091010130910201220F331F306E50E078
:1000C00002C0559547958A95E2F781E090E040FFA0
:1000D00002C080E090E0282B392B3093020120935E
:1000E000010181E02115304F09F080E0089585B5C8
:1000F000886485BD85B5806285BD85B5856085BD13
:100100008FEF83BD87B7806487BF089587B3806E04
:1001100087BBC79AB89A11BA8FEF82BB08951F9216
:100120000F920FB60F9211248F93809100018930A6
:1001300011F410920001809100018F5F8093000103
:100140008F910F900FBE0F901F9018951F920F92D6
:100150000FB60F9211248F938091050183BD8F916B
:100160000F900FBE0F901F9018951F920F920FB611
:100170000F9211240F900FBE0F901F9018951F9291
:100180000F920FB60F9211242F938F939F9380910C
:100190000301909104018F3F2FEF920731F00196F8
:1001A000909304018093030104C010920401109203
:1001B00003019F918F912F910F900FBE0F901F9071
:1001C000189595DFA3DF7894C59A82B382BB81B37B
:1001D00081BBEAE6F0E080818360808389B781603B
:1001E00089BF88B7816088BF10E2D0E4CFEF80E09C
:1001F0005EDF882349F0C09A88B3812788BB88B323
:100200008D2788BBC093050181E051DF882379F3F6
:0C021000C09810920501EBCFF894FFCFCE
:00000001FF
