S00E0000526F623432312E737265635C
S113000045C0000053C0000051C000004FC00000B4
S11300104DC000004BC0000049C0000047C00000B4
S113002045C0000043C0000091C000003FC0000074
S11300303DC000003BC0000039C0000037C00000D4
S11300406EC0000033C0000031C000002FC00000AB
S11300502DC000008AC0000029C0000027C0000095
S113006025C0000023C0000021C000001FC0000004
S11300701DC000001BC0000019C0000017C0000014
S113008015C0000013C0000011C0000011241FBEE1
S1130090CFEFD0E1DEBFCDBF21E0A0E0B1E001C0F1
S11300A01D92A430B207E1F76AD085C0A9CF40B34E
S11300B02091010130910201220F331F306E50E074
S11300C002C0559547958A95E2F781E090E040FF9C
S11300D002C080E090E0282B392B3093020120935A
S11300E0010181E02115304F09F080E0089585B5C4
S11300F0886485BD85B5806285BD85B5856085BD0F
S11301008FEF83BD87B7806487BF089587B3806E00
S113011087BBC79AB89A11BA8FEF82BB08951F9212
S11301200F920FB60F9211248F93809100018930A2
S113013011F410920001809100018F5F80930001FF
S11301408F910F900FBE0F901F9018951F920F92D2
S11301500FB60F9211248F938091030183BD8F9169
S11301600F900FBE0F901F9018951F920F920FB60D
S11301700F9211240F900FBE0F901F901895B7DFA8
S1130180C5DF7894C59A10E2D0E4CFEF80E08FDF2A
S1130190882349F0C09A88B3812788BB88B38D2708
S11301A088BBC093030181E082DF882379F3C09880
S10D01B010920301EBCFF894FFCF87
S9030000FC
